{
  "_format": "hh-sol-artifact-1",
  "contractName": "ParkingMarketplace",
  "sourceName": "contracts/ParkingMarketplace.sol",
  "abi": [
    {
      "anonymous": false,
      "inputs": [
        {
          "indexed": true,
          "internalType": "uint256",
          "name": "spotId",
          "type": "uint256"
        },
        {
          "indexed": true,
          "internalType": "address",
          "name": "host",
          "type": "address"
        },
        {
          "indexed": false,
          "internalType": "uint256",
          "name": "amount",
          "type": "uint256"
        }
      ],
      "name": "PaymentClaimed",
      "type": "event"
    },
    {
      "anonymous": false,
      "inputs": [
        {
          "indexed": true,
          "internalType": "uint256",
          "name": "spotId",
          "type": "uint256"
        },
        {
          "indexed": true,
          "internalType": "address",
          "name": "driver",
          "type": "address"
        },
        {
          "indexed": false,
          "internalType": "uint256",
          "name": "bookingEndTime",
          "type": "uint256"
        }
      ],
      "name": "SpotBooked",
      "type": "event"
    },
    {
      "anonymous": false,
      "inputs": [
        {
          "indexed": true,
          "internalType": "uint256",
          "name": "spotId",
          "type": "uint256"
        },
        {
          "indexed": true,
          "internalType": "address",
          "name": "host",
          "type": "address"
        },
        {
          "indexed": false,
          "internalType": "string",
          "name": "location",
          "type": "string"
        },
        {
          "indexed": false,
          "internalType": "uint256",
          "name": "price",
          "type": "uint256"
        }
      ],
      "name": "SpotListed",
      "type": "event"
    },
    {
      "inputs": [
        {
          "internalType": "uint256",
          "name": "_spotId",
          "type": "uint256"
        },
        {
          "internalType": "uint256",
          "name": "_hours",
          "type": "uint256"
        }
      ],
      "name": "bookSpot",
      "outputs": [],
      "stateMutability": "payable",
      "type": "function"
    },
    {
      "inputs": [
        {
          "internalType": "uint256",
          "name": "_spotId",
          "type": "uint256"
        }
      ],
      "name": "claimPayment",
      "outputs": [],
      "stateMutability": "nonpayable",
      "type": "function"
    },
    {
      "inputs": [
        {
          "internalType": "uint256",
          "name": "_spotId",
          "type": "uint256"
        }
      ],
      "name": "getSpot",
      "outputs": [
        {
          "internalType": "uint256",
          "name": "id",
          "type": "uint256"
        },
        {
          "internalType": "address",
          "name": "host",
          "type": "address"
        },
        {
          "internalType": "string",
          "name": "location",
          "type": "string"
        },
        {
          "internalType": "uint256",
          "name": "price",
          "type": "uint256"
        },
        {
          "internalType": "bool",
          "name": "isBooked",
          "type": "bool"
        },
        {
          "internalType": "address",
          "name": "driver",
          "type": "address"
        },
        {
          "internalType": "uint256",
          "name": "bookingEndTime",
          "type": "uint256"
        }
      ],
      "stateMutability": "view",
      "type": "function"
    },
    {
      "inputs": [
        {
          "internalType": "string",
          "name": "_location",
          "type": "string"
        },
        {
          "internalType": "uint256",
          "name": "_pricePerHour",
          "type": "uint256"
        }
      ],
      "name": "listSpot",
      "outputs": [],
      "stateMutability": "nonpayable",
      "type": "function"
    },
    {
      "inputs": [],
      "name": "nextSpotId",
      "outputs": [
        {
          "internalType": "uint256",
          "name": "",
          "type": "uint256"
        }
      ],
      "stateMutability": "view",
      "type": "function"
    },
    {
      "inputs": [
        {
          "internalType": "uint256",
          "name": "",
          "type": "uint256"
        }
      ],
      "name": "spots",
      "outputs": [
        {
          "internalType": "uint256",
          "name": "id",
          "type": "uint256"
        },
        {
          "internalType": "address payable",
          "name": "host",
          "type": "address"
        },
        {
          "internalType": "string",
          "name": "location",
          "type": "string"
        },
        {
          "internalType": "uint256",
          "name": "pricePerHour",
          "type": "uint256"
        },
        {
          "internalType": "bool",
          "name": "isBooked",
          "type": "bool"
        },
        {
          "internalType": "address",
          "name": "driver",
          "type": "address"
        },
        {
          "internalType": "uint256",
          "name": "bookingEndTime",
          "type": "uint256"
        }
      ],
      "stateMutability": "view",
      "type": "function"
    }
  ],
  "bytecode": "0x608060405234801561001057600080fd5b50611828806100206000396000f3fe6080604052600436106100555760003560e01c8063145a8bdf1461005a57806363ae2d181461009d5780638419b159146100c6578063a2799fc1146100e2578063c63fdcc714610125578063df97a56d1461014e575b600080fd5b34801561006657600080fd5b50610081600480360381019061007c9190610c69565b610179565b6040516100949796959493929190610db2565b60405180910390f35b3480156100a957600080fd5b506100c460048036038101906100bf9190610e8d565b610290565b005b6100e060048036038101906100db9190610eed565b61052e565b005b3480156100ee57600080fd5b5061010960048036038101906101049190610c69565b610748565b60405161011c9796959493929190610f2d565b60405180910390f35b34801561013157600080fd5b5061014c60048036038101906101479190610c69565b61096c565b005b34801561015a57600080fd5b50610163610c23565b6040516101709190610fa3565b60405180910390f35b60006020528060005260406000206000915090508060000154908060010160009054906101000a900473ffffffffffffffffffffffffffffffffffffffff16908060020180546101c890610fed565b80601f01602080910402602001604051908101604052809291908181526020018280546101f490610fed565b80156102415780601f1061021657610100808354040283529160200191610241565b820191906000526020600020905b81548152906001019060200180831161022457829003601f168201915b5050505050908060030154908060040160009054906101000a900460ff16908060040160019054906101000a900473ffffffffffffffffffffffffffffffffffffffff16908060050154905087565b600083839050116102d6576040517f08c379a00000000000000000000000000000000000000000000000000000000081526004016102cd9061106a565b60405180910390fd5b60008111610319576040517f08c379a0000000000000000000000000000000000000000000000000000000008152600401610310906110d6565b60405180910390fd5b6040518060e0016040528060015481526020013373ffffffffffffffffffffffffffffffffffffffff16815260200184848080601f016020809104026020016040519081016040528093929190818152602001838380828437600081840152601f19601f820116905080830192505050505050508152602001828152602001600015158152602001600073ffffffffffffffffffffffffffffffffffffffff168152602001600081525060008060015481526020019081526020016000206000820151816000015560208201518160010160006101000a81548173ffffffffffffffffffffffffffffffffffffffff021916908373ffffffffffffffffffffffffffffffffffffffff160217905550604082015181600201908161043d91906112d1565b506060820151816003015560808201518160040160006101000a81548160ff02191690831515021790555060a08201518160040160016101000a81548173ffffffffffffffffffffffffffffffffffffffff021916908373ffffffffffffffffffffffffffffffffffffffff16021790555060c082015181600501559050503373ffffffffffffffffffffffffffffffffffffffff166001547f3517f7fc27d2607f62f12b17001d8c72f46d022f2d70f4074275bacce5755302858585604051610509939291906113df565b60405180910390a36001600081548092919061052490611440565b9190505550505050565b6001548210610572576040517f08c379a0000000000000000000000000000000000000000000000000000000008152600401610569906114d4565b60405180910390fd5b600080600084815260200190815260200160002090508060040160009054906101000a900460ff16156105da576040517f08c379a00000000000000000000000000000000000000000000000000000000081526004016105d190611540565b60405180910390fd5b6000821161061d576040517f08c379a0000000000000000000000000000000000000000000000000000000008152600401610614906115ac565b60405180910390fd5b81816003015461062d91906115cc565b34101561066f576040517f08c379a00000000000000000000000000000000000000000000000000000000081526004016106669061165a565b60405180910390fd5b60018160040160006101000a81548160ff021916908315150217905550338160040160016101000a81548173ffffffffffffffffffffffffffffffffffffffff021916908373ffffffffffffffffffffffffffffffffffffffff160217905550610e10826106dd91906115cc565b426106e8919061167a565b81600501819055503373ffffffffffffffffffffffffffffffffffffffff16837f8a1763fca6a1553c916967354b040fa07d91b7262d4f58fe972da8d0f28c2413836005015460405161073b9190610fa3565b60405180910390a3505050565b60008060606000806000806001548810610797576040517f08c379a000000000000000000000000000000000000000000000000000000000815260040161078e906114d4565b60405180910390fd5b60008060008a81526020019081526020016000206040518060e0016040529081600082015481526020016001820160009054906101000a900473ffffffffffffffffffffffffffffffffffffffff1673ffffffffffffffffffffffffffffffffffffffff1673ffffffffffffffffffffffffffffffffffffffff16815260200160028201805461082690610fed565b80601f016020809104026020016040519081016040528092919081815260200182805461085290610fed565b801561089f5780601f106108745761010080835404028352916020019161089f565b820191906000526020600020905b81548152906001019060200180831161088257829003601f168201915b50505050508152602001600382015481526020016004820160009054906101000a900460ff161515151581526020016004820160019054906101000a900473ffffffffffffffffffffffffffffffffffffffff1673ffffffffffffffffffffffffffffffffffffffff1673ffffffffffffffffffffffffffffffffffffffff1681526020016005820154815250509050806000015181602001518260400151836060015184608001518560a001518660c00151975097509750975097509750975050919395979092949650565b60015481106109b0576040517f08c379a00000000000000000000000000000000000000000000000000000000081526004016109a7906114d4565b60405180910390fd5b600080600083815260200190815260200160002090503373ffffffffffffffffffffffffffffffffffffffff168160010160009054906101000a900473ffffffffffffffffffffffffffffffffffffffff1673ffffffffffffffffffffffffffffffffffffffff1614610a58576040517f08c379a0000000000000000000000000000000000000000000000000000000008152600401610a4f906116fa565b60405180910390fd5b8060040160009054906101000a900460ff16610aa9576040517f08c379a0000000000000000000000000000000000000000000000000000000008152600401610aa090611766565b60405180910390fd5b8060050154421015610af0576040517f08c379a0000000000000000000000000000000000000000000000000000000008152600401610ae7906117d2565b60405180910390fd5b60008160030154905060008260040160006101000a81548160ff02191690831515021790555060008260040160016101000a81548173ffffffffffffffffffffffffffffffffffffffff021916908373ffffffffffffffffffffffffffffffffffffffff160217905550600082600501819055508160010160009054906101000a900473ffffffffffffffffffffffffffffffffffffffff1673ffffffffffffffffffffffffffffffffffffffff166108fc829081150290604051600060405180830381858888f19350505050158015610bce573d6000803e3d6000fd5b503373ffffffffffffffffffffffffffffffffffffffff16837fdd74eb9cba06f514be98342b0ed0290146aee9feaf27e8a7ddcb151bb43dac8683604051610c169190610fa3565b60405180910390a3505050565b60015481565b600080fd5b600080fd5b6000819050919050565b610c4681610c33565b8114610c5157600080fd5b50565b600081359050610c6381610c3d565b92915050565b600060208284031215610c7f57610c7e610c29565b5b6000610c8d84828501610c54565b91505092915050565b610c9f81610c33565b82525050565b600073ffffffffffffffffffffffffffffffffffffffff82169050919050565b6000610cd082610ca5565b9050919050565b610ce081610cc5565b82525050565b600081519050919050565b600082825260208201905092915050565b60005b83811015610d20578082015181840152602081019050610d05565b60008484015250505050565b6000601f19601f8301169050919050565b6000610d4882610ce6565b610d528185610cf1565b9350610d62818560208601610d02565b610d6b81610d2c565b840191505092915050565b60008115159050919050565b610d8b81610d76565b82525050565b6000610d9c82610ca5565b9050919050565b610dac81610d91565b82525050565b600060e082019050610dc7600083018a610c96565b610dd46020830189610cd7565b8181036040830152610de68188610d3d565b9050610df56060830187610c96565b610e026080830186610d82565b610e0f60a0830185610da3565b610e1c60c0830184610c96565b98975050505050505050565b600080fd5b600080fd5b600080fd5b60008083601f840112610e4d57610e4c610e28565b5b8235905067ffffffffffffffff811115610e6a57610e69610e2d565b5b602083019150836001820283011115610e8657610e85610e32565b5b9250929050565b600080600060408486031215610ea657610ea5610c29565b5b600084013567ffffffffffffffff811115610ec457610ec3610c2e565b5b610ed086828701610e37565b93509350506020610ee386828701610c54565b9150509250925092565b60008060408385031215610f0457610f03610c29565b5b6000610f1285828601610c54565b9250506020610f2385828601610c54565b9150509250929050565b600060e082019050610f42600083018a610c96565b610f4f6020830189610da3565b8181036040830152610f618188610d3d565b9050610f706060830187610c96565b610f7d6080830186610d82565b610f8a60a0830185610da3565b610f9760c0830184610c96565b98975050505050505050565b6000602082019050610fb86000830184610c96565b92915050565b7f4e487b7100000000000000000000000000000000000000000000000000000000600052602260045260246000fd5b6000600282049050600182168061100557607f821691505b60208210810361101857611017610fbe565b5b50919050565b7f4c6f636174696f6e207265717569726564000000000000000000000000000000600082015250565b6000611054601183610cf1565b915061105f8261101e565b602082019050919050565b6000602082019050818103600083015261108381611047565b9050919050565b7f5072696365206d7573742062652067726561746572207468616e203000000000600082015250565b60006110c0601c83610cf1565b91506110cb8261108a565b602082019050919050565b600060208201905081810360008301526110ef816110b3565b9050919050565b7f4e487b7100000000000000000000000000000000000000000000000000000000600052604160045260246000fd5b60008190508160005260206000209050919050565b60006020601f8301049050919050565b600082821b905092915050565b6000600883026111877fffffffffffffffffffffffffffffffffffffffffffffffffffffffffffffffff8261114a565b611191868361114a565b95508019841693508086168417925050509392505050565b6000819050919050565b60006111ce6111c96111c484610c33565b6111a9565b610c33565b9050919050565b6000819050919050565b6111e8836111b3565b6111fc6111f4826111d5565b848454611157565b825550505050565b600090565b611211611204565b61121c8184846111df565b505050565b5b8181101561124057611235600082611209565b600181019050611222565b5050565b601f8211156112855761125681611125565b61125f8461113a565b8101602085101561126e578190505b61128261127a8561113a565b830182611221565b50505b505050565b600082821c905092915050565b60006112a86000198460080261128a565b1980831691505092915050565b60006112c18383611297565b9150826002028217905092915050565b6112da82610ce6565b67ffffffffffffffff8111156112f3576112f26110f6565b5b6112fd8254610fed565b611308828285611244565b600060209050601f83116001811461133b5760008415611329578287015190505b61133385826112b5565b86555061139b565b601f19841661134986611125565b60005b828110156113715784890151825560018201915060208501945060208101905061134c565b8683101561138e578489015161138a601f891682611297565b8355505b6001600288020188555050505b505050505050565b82818337600083830152505050565b60006113be8385610cf1565b93506113cb8385846113a3565b6113d483610d2c565b840190509392505050565b600060408201905081810360008301526113fa8185876113b2565b90506114096020830184610c96565b949350505050565b7f4e487b7100000000000000000000000000000000000000000000000000000000600052601160045260246000fd5b600061144b82610c33565b91507fffffffffffffffffffffffffffffffffffffffffffffffffffffffffffffffff820361147d5761147c611411565b5b600182019050919050565b7f496e76616c69642073706f742049440000000000000000000000000000000000600082015250565b60006114be600f83610cf1565b91506114c982611488565b602082019050919050565b600060208201905081810360008301526114ed816114b1565b9050919050565b7f53706f7420616c726561647920626f6f6b656400000000000000000000000000600082015250565b600061152a601383610cf1565b9150611535826114f4565b602082019050919050565b600060208201905081810360008301526115598161151d565b9050919050565b7f486f757273206d7573742062652067726561746572207468616e203000000000600082015250565b6000611596601c83610cf1565b91506115a182611560565b602082019050919050565b600060208201905081810360008301526115c581611589565b9050919050565b60006115d782610c33565b91506115e283610c33565b92508282026115f081610c33565b9150828204841483151761160757611606611411565b5b5092915050565b7f496e73756666696369656e74207061796d656e74000000000000000000000000600082015250565b6000611644601483610cf1565b915061164f8261160e565b602082019050919050565b6000602082019050818103600083015261167381611637565b9050919050565b600061168582610c33565b915061169083610c33565b92508282019050808211156116a8576116a7611411565b5b92915050565b7f4f6e6c7920686f73742063616e20636c61696d00000000000000000000000000600082015250565b60006116e4601383610cf1565b91506116ef826116ae565b602082019050919050565b60006020820190508181036000830152611713816116d7565b9050919050565b7f53706f74206e6f7420626f6f6b65640000000000000000000000000000000000600082015250565b6000611750600f83610cf1565b915061175b8261171a565b602082019050919050565b6000602082019050818103600083015261177f81611743565b9050919050565b7f426f6f6b696e67206e6f7420656e646564000000000000000000000000000000600082015250565b60006117bc601183610cf1565b91506117c782611786565b602082019050919050565b600060208201905081810360008301526117eb816117af565b905091905056fea264697066735822122074d4795b2965facc71e48994e318b770482dbf1e87213b65cd392a783311d4fb64736f6c63430008130033",
  "linkReferences": {},
  "deployedLinkReferences": {}
}